:020000040000FA
:10000000A80900206D0200007102000073020000C8
:100010007502000077020000790200000000000075
:100020000000000000000000000000007B02000053
:100030007D020000000000007F0200007D13000030
:10004000830200008302000083020000830200009C
:10005000830200008302000083020000830200008C
:10006000830200008302000083020000830200007C
:10007000830200008302000083020000830200006C
:10008000830200008302000083020000830200005C
:10009000830200008302000083020000451F00006D
:1000A000830200008302000083020000830200003C
:1000B000830200008302000083020000830200002C
:1000C000830200008302000083020000830200001C
:1000D000830200008302000083020000830200000C
:1000E00083020000830200008302000083020000FC
:1000F00083020000830200008302000083020000EC
:1001000083020000830200008302000083020000DB
:1001100083020000830200008302000083020000CB
:1001200083020000830200008302000083020000BB
:1001300083020000830200008302000083020000AB
:1001400000000000000000000000000000000000AF
:100150008302000083020000ED1F00008302000004
:10016000000000000000000000000000000000008F
:10017000000000000000000000000000000000007F
:10018000000000000000000000000000000000006F
:10019000000000000000000000000000000000005F
:1001A000000000000000000000000000000000004F
:1001B0000D20000083020000830200008302000083
:1001C000830200008302000083020000830200001B
:1001D000830200008302000083020000830200000B
:1001E00083020000830200008302000083020000FB
:1001F00083020000830200008302000083020000EB
:10020000830200008302000083020000000000005F
:1002100083020000830200008302000083020000CA
:1002200083020000830200008302000083020000BA
:1002300083020000830200008302000083020000AA
:10024000830200008302000083020000830200009A
:10025000830200008302000083020000830200008A
:1002600083020000830200008302000000F00AB84D
:10027000FEE7FEE7FEE7FEE7FEE7FEE7FEE7FEE756
:10028000FEE7FEE700F002F800F03AF80AA090E876
:10029000000C82448344AAF10107DA4501D100F041
:1002A0002FF8AFF2090EBAE80F0013F0010F18BFD4
:1002B000FB1A43F001031847606C0000806C0000DB
:1002C000103A24BF78C878C1FAD8520724BF30C882
:1002D00030C144BF04680C60704700000023002454
:1002E00000250026103A28BF78C1FBD8520728BF46
:1002F00030C148BF0B6070471FB51FBD10B510BDA2
:1003000000F064F81146FFF7F7FF01F01DFF00F061
:1003100082F803B4FFF7F2FF03BC00F087F8000097
:1003200072B6704762B67047EFF3108072B67047CE
:1003300080F31088704730BF704702480249014A75
:10034000024B7047A8050020A8090020A80500203E
:10035000064A4FF0010010607047044A10680449D3
:1003600000FB01F00349084410607047740000204E
:100370000D6619005FF36E3C4FF0000200B51346A6
:1003800094469646203922BFA0E80C50A0E80C50B5
:10039000B1F12001BFF4F7AF090728BFA0E80C5066
:1003A00048BF0CC05DF804EB890028BF40F8042B5F
:1003B00008BF704748BF20F8022B11F0804F18BFCC
:1003C00000F8012B7047704770477047754600F082
:1003D00029F8AE4605006946534620F007008546D9
:1003E00018B020B5FFF7A9FFBDE820404FF0000688
:1003F0004FF000074FF000084FF0000B21F007010D
:10040000AC46ACE8C009ACE8C009ACE8C009ACE84F
:10041000C0098D4670470446AFF300802046FFF7C1
:1004200078FF000000487047480500200149182067
:10043000ABBEFEE7260002007047000030490968A5
:1004400041F010012F4AC2F808112D4908682E49C1
:10045000096821F008012C4A11604FF00F012B4A66
:1004600011602B49096861F00801294A1160294986
:10047000096841F00801274A11602749096841F0DD
:100480000801254A11601F49D1F8001141F480315B
:100490001C4AC2F80011214908681146D1F8001120
:1004A00021F44071C2F800111D49096A40F223117C
:1004B0001B4A11621146096821F0080111601146BA
:1004C000496921F4704151611146D1F8A01021F021
:1004D0000F01C2F8A0101146D1F8A01041F001019F
:1004E000C2F8A0101146D1F8A41041F00601C2F8DC
:1004F000A4101146096841F008011160704700001E
:1005000008E10F4000E00F401C4502402C4502402E
:1005100000440240284502402044024000E10F40D0
:10052000008003400A49896A41F00801084A916243
:1005300000BF0749496811F0080FFAD0054908685B
:100540000349C96841F00801014AD16070470000C1
:1005500000800340A8800340014800687047000005
:10056000A890034008B52B48006840F008002A49CD
:10057000C1F80801274800680090264800680090EC
:100580002648006820F008002449086024480068D4
:1005900040F00800224908602248006820F0080066
:1005A000204908602048006840F008001E490860A3
:1005B0001948D0F8000140F400301749C1F8000193
:1005C0004FF00000009002E00098401C009000985E
:1005D0001428F9D301201549086040F2231014496A
:1005E0000862002008600846406940F47040486195
:1005F0000320086304200F4908604FF006000C49EF
:10060000C1F8A4004FF0000088604FF008000860B7
:1006100008BD000008E10F4000E00F4000740040FA
:10062000207400401C75004028750040C49F0340A2
:1006300000900340A0900340014640F29A60484376
:10064000800A704714480068012807D113480068E1
:1006500000EB80004000124908601CE00E48006872
:1006600002280AD10D48006800EB80000C49096897
:1006700001EB80000A4908600DE007480068032884
:1006800009D106480068C0EB00100549096801EB74
:100690004000034908607047140000200800002053
:1006A0000C0000202DE9F043A1B0402111A8FFF774
:1006B00063FE402101A8FFF75FFE002081468046CF
:1006C00007460646904840689049897D461A8E48FC
:1006D00000688E49897C0844871C8D4840688D4994
:1006E000897DA0EB01098A4800688A49897C00EB72
:1006F0000108854880688849884258D0002451E024
:10070000864800EB0410806800284AD0834800EB3C
:1007100004100068B84244D8804800EB0410006818
:100720007949096888423CD37C4800EB0410406852
:10073000B04236DB794800EB0410406872494968E2
:1007400088422EDC70488068704988420AD10020B7
:10075000724901EB0411886071486B49886001F0AF
:100760003FFA1EE0684880686D4988420AD100203F
:100770006A4901EB041188606A486349886001F0A6
:1007800039FA0EE0604880686649884209D1002045
:10079000624901EB041188605F485B49886001F0A1
:1007A00033FA641C604800688442A9D338E000240E
:1007B00032E05A4800EB0410406848452BDB5748AC
:1007C00000EB0410406852494968884223DC5348D2
:1007D00000EB04108068F0B14D48806853498842AE
:1007E00019D04E4800EB0410006849490968884256
:1007F00011D34A4800EB0410006840450BD8002094
:10080000464901EB0411C860494901EB0411C86075
:1008100048483F498860641C434800688442C8D304
:10082000002469E0002562E0434800EB05104068C1
:100830004249897D084411A941F825003E4800EB52
:10084000051000683D49897C084401A941F825004C
:10085000374800EB04104068374901EB051149683F
:10086000884243DB324800EB0410406811A951F87C
:10087000251088423ADC304800EB0510C068A8B368
:100880002B4800EB0410C06880B32B4800EB051028
:1008900080682B49884229D0254800EB0410006865
:1008A000254901EB0511096888421FD3204800EB58
:1008B0000410006801A951F82510884216D8204874
:1008C0001D4901EB0511886000201B4901EB051152
:1008D000C860124901EB0511C860154901EB04110C
:1008E000C86018480068401C164908606D1C0E4816
:1008F0000068854298D3641C13480068844291D3F1
:1009000021B0BDE8F083000040030020ED2A000084
:1009100030030020162A0000062D0000500300209E
:10092000A02B0000532C000010000020902E00008F
:1009300010040020B92D000070020020882800005B
:10094000672F0000080000202000002010B5584844
:10095000006858490968884274D15748C06800281F
:1009600070D000F009FE00F0E7F80021084601F021
:10097000B9F852480068012802D0022861D135E058
:100980004FA000F001FF0121002001F0ABF84EA0C4
:1009900000F0FAFE0221002001F0A4F8FFF752FE59
:1009A0004CA000F0F1FE4D49098888B200F0F8FE35
:1009B0000321002001F096F849A000F0E5FE00BFF9
:1009C0004C48006810F0040FFAD0022000F054FBED
:1009D0000820384908600020354908603748006819
:1009E000401C3649086000F0DDF82AE042A000F023
:1009F000CBFE0121002001F075F833A000F0C4FE09
:100A00003649098888B200F0CBFEFFF71BFE334958
:100A1000098888B200F0C4FE0321002001F062F8CA
:100A200037A000F0B1FE0C202249086000202049C8
:100A3000086022480068401C2049086000BFFEE7AB
:100A400000E033E01C48C06820B11B488068314991
:100A500088422BD130A000F097FE00F06DF8FFF730
:100A6000F1FD00F089FD00F097FD2D4812498860E6
:100A70000B469A6819791878002300F05FFF00F0A0
:100A800097FD0021084601F02DF826A000F07CFE1D
:100A90000121002001F026F825A000F075FE0F4985
:100AA000098888B200F07CFE00BFFEE710BD0000A0
:100AB0000800002010000020300300201400002057
:100AC0004C6576656C20310046696E6973686564B3
:100AD0000000000053636F72650000000C000020EE
:100AE0005072657373207374617274202042757440
:100AF000746F6E00FC4302404C6576656C203200DA
:100B000050726573732073746172742042757474CB
:100B10006F6E0000B92D00004845524500000000EE
:100B2000902E0000596F75204C6F73740000000008
:100B300053636F72653A200012E000200C490D4AA1
:100B4000126801EB0211886000210948094A126805
:100B500000EB0210C16007480068401C05490860AE
:100B6000044800681028E8D3002002490860704754
:100B70001004002020000020064800680649086094
:100B80000648807DC0F12F0048600548886001203C
:100B9000C86070473003002040030020162A000080
:100BA000ED2A000030B5964B997D0322954B1B68CA
:100BB000012B38D10323944C2360914B9B7D6360C0
:100BC0008F4BA3600123E36023461B688C4CA47CFD
:100BD0002344DB1C8C4C2361894B9C7D8A4B5C61DC
:100BE0008A4C9C610124DC611B69854CA47C2344F4
:100BF000DB1C854C2362824B9C7D834B5C62804C6A
:100C00009C620124DC621B6A7D4CA47C2344DB1CB7
:100C10007D4C23637A4B9C7D7B4B5C637B4C9C635C
:100C20000124DC63EBE0774B1B68022B72D10020C0
:100C30006AE0754B03EB00131A60734B03EB001370
:100C40005960734B704C04EB0014A36001236E4C8D
:100C500004EB0014E3606C4B03EB00131B68684C5F
:100C6000A47C2344DB1C684D441C05EB0414236066
:100C70002C46431C04EB03135960664C431C05EBE4
:100C800003139C600124431C05EB0313DC602C461A
:100C9000431C04EB03131B68594CA47C23449C188D
:100CA000831C05EB03131C602C46831C04EB03130D
:100CB0005960574C831C05EB03139C600124831C73
:100CC00005EB0313DC602C46831C04EB03131B6849
:100CD0004B4CA47C2344DB1CC41C05EB0414236094
:100CE0002C46C31C04EB031359604A4CC31C05EB90
:100CF00003139C600124C31C05EB0313DC60001D7F
:100D00003F4B9B7D1944121D434B1B68984290D367
:100D100075E0FFE73B4B1B68032B70D100206AE0B6
:100D2000394B03EB00131A60374B03EB0013596088
:100D30003A4B354C04EB0014A3600123324C04EB16
:100D40000014E360304B03EB00131B682C4CA47CB5
:100D500023449C182C4D431C05EB03131C602C46AC
:100D6000431C04EB031359602D4C431C05EB031388
:100D70009C600124431C05EB0313DC602C46431CE0
:100D800004EB03131B681E4CA47C23449C18831C97
:100D900005EB03131C602C46831C04EB0313596002
:100DA0001E4C831C05EB03139C600124831C05EB84
:100DB0000313DC602C46831C04EB03131B68104CEC
:100DC000A47C23449C18C31C05EB03131C602C4615
:100DD000C31C04EB03135960114CC31C05EB031334
:100DE0009C600124C31C05EB0313DC60001D044B55
:100DF0009B7D1944121D084B1B68984290D330BD4F
:100E00008828000014000020700200204F290000F4
:100E1000FA260000C1270000100000206C25000009
:100E20003326000070B506460D460024002E77D10B
:100E30005948006880BB00F05BFF5849887C00EB94
:100E4000D071574A126802EB6101491E554A524B54
:100E50001B6802EB031211605048807DC0F12F0027
:100E60005149897D411A4F484B4A126800EB0210E4
:100E700041604C484849096800EB01108560012039
:100E80004849454A126801EB0211C86042480068AF
:100E9000401C414908607EE0FFE74048807DC0F18A
:100EA0002F004149897D401A08383B490968491E8D
:100EB0003C4A02EB0111496888426CDB00F018FFE4
:100EC0003649887C00EBD071354A126802EB61012B
:100ED000491E344A304B1B6802EB031211602F4845
:100EE000807DC0F12F003049897D401A2D492A4A62
:100EF000126801EB021148602A482749096800EB93
:100F00000110856001202749234A126801EB021174
:100F1000C86021480068401C1F4908603BE0FFE7AB
:100F2000012E38D1FFF719FA20490968C1F11F01D4
:100F3000C8401E490968B0FBF1F201FB12041C48CD
:100F400000EB0410C06830BB1A4800EB0410806846
:100F5000194988421FD01949887C00EBD071154A85
:100F600002EB0412126802EB6101114A02EB041257
:100F700011601248807D1249897D08440C4901EBBB
:100F8000041148600A4800EB0410856001200849FC
:100F900001EB0411C86070BD20000020162A00007B
:100FA0003003002010040020ED2A00001000002073
:100FB0005003002070020020902E000088280000BE
:100FC0002E30000000B5FFF7EDFD00F003F8FFF74D
:100FD000D3FD00BD0020044908602F20486003486D
:100FE00088600120C860704730030020162A000086
:100FF00000201649096841F00401154AC2F8081199
:1010000012490968C8B21349096821F0F001114A70
:1010100011601149096821F0F0010F4A11600F4970
:10102000096841F0F0010D4A11604FF6FF710C4A5A
:1010300011600C49096841F0F0010A4A11600A493F
:10104000096841F0F001084A1160704708E10F405B
:1010500000E00F4028650040206400400865004023
:101060002C650040006400401C6500400101014AFD
:1010700011607047FC63004005E0044900E0491E30
:101080000029FCD1401E0028F7D17047C8180B007A
:1010900010B50548C06830B1034B9A6819791878C3
:1010A000002300F04BFC10BD4003002010B50024CD
:1010B00013E0114800EB04108068104988420BD1FE
:1010C0000D4800EB0410C06830B900F0B7FD0120F6
:1010D000094901EB0411C860641C09480068844296
:1010E000E7D3084880680849884204D100F068FDC9
:1010F00000200449C86010BD70020020672F000066
:101100001000002030030020B92D000070B500242D
:1011100075E03D4800EB041080683C49884204D0EB
:10112000394800EB0410C06870B1374B03EB04136F
:101130009A68354B03EB04131979334B03EB041313
:101140001878002300F0FAFB2F49601C01EB001017
:1011500080682E49884205D02B49601C01EB0010A5
:10116000C06878B1284D631C05EB03139A68631CB3
:1011700005EB03131979631C05EB0313187800239F
:1011800000F0DCFB2049A01C01EB001080681F4927
:10119000884205D01C49A01C01EB0010C06878B142
:1011A000194DA31C05EB03139A68A31C05EB03134D
:1011B0001979A31C05EB03131878002300F0BEFB7C
:1011C0001149E01C01EB001080681049884205D0ED
:1011D0000D49E01C01EB0010C06878B10A4DE31C1A
:1011E00005EB03139A68E31C05EB03131979E31C61
:1011F00005EB03131878002300F0A0FB241D04481E
:101200000068844285D370BD70020020672F000003
:101210001000002010B500242DE0434800EB04101E
:10122000C06870B1404B03EB04139A683E4B03EB6C
:10123000041319793C4B03EB04131878002300F0D6
:101240007DFB3A49887D00EBD071374A02EB0412EE
:101250005268A2EB6101344A02EB04125160324839
:1012600000EB04104068002804DA00202E4901EB4E
:101270000411C860641C2E4800688442CDD32A48FB
:10128000D0F8F400002805DA2948007800F00F00B3
:10129000274908602648006808B9FFF74DFC00247C
:1012A0003FE0244800EB0410C06870B32248C068D7
:1012B00058B3224800EB0410C06830B31D4800EB5F
:1012C000041080681E4988421FD01C4B03EB041396
:1012D0009A681A4B03EB04131979184B03EB0413A8
:1012E0001878002300F02AFB104A917D01EBD1729F
:1012F000501000EBD072114B03EB04135B6803EB4F
:1013000062020E4B03EB04135A600C4800EB04100E
:101310004068302804DD0020084901EB0411C86052
:10132000641C0C2CBDDB10BD10040020C930000073
:101330002000002070020020300300205003002015
:10134000672F000010B5FFF7E1FE00F009F8FFF786
:101350009FFEFFF75FFF00F02BF9FFF7F7FA10BDD4
:1013600010B50548C06830B1034B9A6819791878F0
:10137000002300F0E3FA10BD3003002010B5FFF7A2
:10138000D1F82549086008460068FFF755F9234958
:101390000860084600686E21B0FBF1F02049086043
:1013A00020480068412803D31E480068122807D946
:1013B0001B4800681B490860194800681A49086002
:1013C0001A48006810F0040F1AD0164880681849AF
:1013D000884215D01748006890B91748807DC0F141
:1013E0002F001649897D401A1549164A126801EBEB
:1013F00002114968884203D013490020FFF712FD0B
:1014000012490120FFF70EFDFFF74CF9FFF74EFEE2
:1014100001200F49086010BD0400002000000020DA
:10142000240000203003002040030020FC43024041
:10143000B92D000018000020162A0000ED2A000037
:101440001004002020000020C93000002E300000D1
:101450006400002010B5044601201B4908600420E8
:101460001A49086000201A49086000F0D7FBFEF70F
:10147000E5FF00F04DFC00F049F8204600F062FC6A
:101480000021084600F02EFB12A000F07DF901219A
:10149000002000F027FB13A000F076F902210020C5
:1014A00000F020FB10A000F06FF90321002000F0F5
:1014B00019FB10A000F068F900BF1348006810F095
:1014C000040FFAD010BD000014000020100000200E
:1014D0000C0000205370616365696E76616465720B
:1014E00073000000427900004D6F276D654E20416A
:1014F0006C69000050726573732046697265204202
:101500007574746F6E000000FC4302401449096852
:1015100041F00801134AC2F808111149086812493C
:10152000096821F07041104A1160A2F104010968B4
:1015300021F0C001A2F1040211600C49096821F0F8
:10154000C0010A4A11600A49096841F0C001084A0D
:1015500011600849096841F0C001064A11607047EE
:1015600008E10F4000E00F402C750040205400407F
:101570001C5500400054004010B5002404E0002138
:10158000012000F0BBFD641CB4F5FC7FF7DB0021FB
:10159000084600F0A7FA10BD002003E00021034A2E
:1015A0001154401CB0F5FC7FF8DB70477800002038
:1015B00010B5024800F004F810BD000078000020CB
:1015C00070B505460021084600F08CFA002404E0BE
:1015D0002957012000F092FD641CB4F5FC7FF7DB75
:1015E00070BD000008B54E48006840F010004D493D
:1015F000C1F804010846D0F8080140F00100C1F824
:1016000008014948006800904848006840F0C00060
:10161000464908604648006840F02C00444908608C
:101620000846006820F0C00008604248006840F0AA
:10163000EC004049086040480068404900EA010069
:101640003F4908443C4908600846006820F07F4054
:101650000860A1F10400006820F0EC00A1F1040191
:1016600008603848406820F0020036494860084663
:10167000406820F0040048603348006820F00F0004
:10168000314908602F48006920F0FF0000F1180080
:101690002C490861084600684FF6C07120EA010035
:1016A000284908600846006820F0300008600846B5
:1016B000006820F00F0000F107000860084640684D
:1016C00040F0020048604FF000004FF04021C1F8A8
:1016D0000002009002E00098401C009000980A2848
:1016E000F9D38020194908604FF021014FF0000024
:1016F00000F004FD6FF04601002000F0FFFC042123
:10170000002000F0FBFC1421002000F0F7FC202159
:10171000002000F0F3FC0C21002000F0EFFC08BDDD
:1017200004E10F4000E00F4008E10F40004400409A
:10173000204400401C4500402C450040FF000FFFA6
:101740000022200000800040C88F0040004200407E
:1017500070B505460021012000F0D0FC00240AE00D
:10176000A5F1200000EB8000064A1044015701203B
:1017700000F0C4FC641C052CF2DB0021012000F009
:10178000BDFC70BDAC21000010B5044603E020781C
:10179000FFF7DEFF641C20780028F8D110BD0000A0
:1017A00070B504460A2C08DA60A0FFF7EDFF04F1DB
:1017B0003001C8B2FFF7CCFFB6E0642C15DA5DA0AB
:1017C000FFF7E2FF0A2094FBF0F03030C5B2284664
:1017D000FFF7BEFF0A2094FBF0F100FB1140303010
:1017E000C5B22846FFF7B4FF9EE0B4F57A7F23DA4E
:1017F00051A0FFF7C9FF642094FBF0F03030C5B270
:101800002846FFF7A5FF642094FBF0F100FB114090
:1018100084B20A2094FBF0F03030C5B22846FFF7BE
:1018200097FF0A2094FBF0F100FB11403030C5B265
:101830002846FFF78DFF77E042F21070844233DADA
:101840002020FFF785FF4FF47A7094FBF0F03030E2
:10185000C5B22846FFF77CFF4FF47A7094FBF0F195
:1018600000FB114084B2642094FBF0F03030C5B22C
:101870002846FFF76DFF642094FBF0F100FB114058
:1018800084B20A2094FBF0F03030C5B22846FFF74E
:101890005FFF0A2094FBF0F100FB11403030C5B22D
:1018A0002846FFF755FF3FE042F2107094FBF0F03E
:1018B0003030C5B22846FFF74BFF42F2107094FB60
:1018C000F0F100FB114084B24FF47A7094FBF0F019
:1018D0003030C5B22846FFF73BFF4FF47A7094FBD7
:1018E000F0F100FB114084B2642094FBF0F0303042
:1018F000C5B22846FFF72CFF642094FBF0F100FBF3
:10190000114084B20A2094FBF0F03030C5B2284672
:10191000FFF71EFF0A2094FBF0F100FB114030306E
:10192000C5B22846FFF714FF70BD0000202020201C
:101930000000000020202000202000002DE9F04FB2
:10194000064615461F46AA7C95F81690B9F1000F79
:1019500012DD924602EBDA7B4FEA6B0BB2EB4B0BDC
:101960000AD106EB020BBBF1540F05DCA9F1010B08
:101970008B4501DC302901DDBDE8F08F0E2F00DD45
:101980000E278A464FEAE17B01EB5B7BCBF3CF0866
:101990004FF0540A0AFB086A1FFA8AF08A464FEA97
:1019A000E17B01EB5B7B4FEAEB0BA1EBCB0B0BF08D
:1019B000FF044FF0010A0AFA04FA0AF0FF04AB7AB6
:1019C0004FF0010C82E015F803A0B7EB1A1F0CDAF8
:1019D000DFF80CA11AF800A04AEA040A4FFA8AFAC2
:1019E000DFF8FCB00BF800A00BE0DFF8F4A01AF869
:1019F00000A02AEA040A4FFA8AFADFF8E4B00BF8EA
:101A000000A000F1010A1FFA8AF015F803A00AF0FD
:101A10000F0ABA450CDDDFF8C8A01AF800A04AEAA0
:101A2000040A4FFA8AFADFF8B8B00BF800A00BE00E
:101A3000DFF8ACA01AF800A02AEA040A4FFA8AFAE2
:101A4000DFF89CB00BF800A000F1010A1FFA8AF041
:101A50005B1C02EBD27B4FEA6B0B9CFBFBFE0BFB90
:101A60001ECBBBF1000F2FD1012C01DD641004E06F
:101A70008024A8F1010A1FFA8AF84FF0540A0AFBE1
:101A8000086A1FFA8AF0934602EBDB7E4FEA6E0A81
:101A90004FEAEA7E0AEB9E7E4FEAAE0EBAEB8E0E5E
:101AA00009D0BEF1010F08D0BEF1020F07D0BEF180
:101AB000030F08D105E000BF05E0DB1C03E09B1C21
:101AC00001E05B1C00BF00BF0CF1010C02FB09FA36
:101AD0000AEBDA7BBCEB6B0F7FF775AF00BF4BE710
:101AE0007800002070B504460D460B2C01DC052D56
:101AF00000DD70BDC4EBC40040F0800041B20020A6
:101B000000F0FCFA45F0400041B2002000F0F6FA87
:101B100000BFEEE71D48006F40F000401B4908671A
:101B20000846006F40F4006008670846006E20F425
:101B3000F86008660846006E00F5A860086608466A
:101B4000006F20F0700008670846006F08670846BD
:101B5000006F20F4005008670846006F40F0804096
:101B600008670846006F20F0FE5000F1807008679B
:101B700000BF0648006D10F0400FFAD00348006F18
:101B800020F40060014908677047000000E00F4042
:101B90000146044A002002E00B5C1354401C082854
:101BA000FADB7047300500200146044A002002E0BD
:101BB0000B5C1354401C0828FADB70471805002002
:101BC00000B54FF40000044908604FF4FA6103487F
:101BD00000F078F800BD000000E100E0ED4F0000EB
:101BE00000B540F2D631024800F06CF800BD0000AC
:101BF000BD57000000B540F2D631024800F062F84F
:101C000000BD0000935B000000B540F2D6310248F1
:101C100000F058F800BD0000A55F000010B50020DE
:101C20000449086004490860FFF7E2F900F0A0F9F0
:101C300010BD0000680000207000002000B54FF4C7
:101C400000000449086040F63151034800F03AF8BA
:101C500000BD000000E100E0BC42000010B51248E9
:101C6000006890B111490968114A1268895C08112D
:101C7000FFF7FCF90E480068401C0D4908600A484F
:101C80000068401E084908600DE00020094988628C
:101C90000948006800F0F0000849C1F8FC034FF45F
:101CA00000000749086010BD700000206C00002093
:101CB0006800002000200340FC530040005000401A
:101CC00080E100E0054A1060054A1268054B9A62FF
:101CD0000022054B1A60054A116070476C00002015
:101CE0005C000020002003406800002070000020FD
:101CF00000B54FF40000044908604FF47F610348C9
:101D0000FFF7E0FF00BD000000E100E0CC32000082
:101D10000B48006820F00400094908600848FC30BE
:101D2000006840F004000649FC310860044820388F
:101D3000006820F004000249203908607047000064
:101D4000204402404FF0E021096900214FF0E022D9
:101D50001161411E5161002191610849096821F01A
:101D60007F4141F00051054A11604FF0E0210969BF
:101D700041F007014FF0E0221161704720ED00E0D3
:101D800010B50446FFF7C6FE4E48006840F020003C
:101D90004C4908604CA0FFF707FF4E484E49886247
:101DA0004E48C8620863486300204D4908604A49AC
:101DB00008604C4908604C4908604C4908604C492F
:101DC00008604C484C4908600F20434908610020D6
:101DD00048614A4908604A4804700020494908603F
:101DE0004949086049484A4908604548007820B98F
:101DF0004848486000F022F93AE04148007801285C
:101E00002BD145484249486001203E4908602D4891
:101E1000006840F010002B49086000F00FF9002026
:101E20003E49C86008600220486041F63F70886201
:101E3000002088630120486288613948006820F4E6
:101E40007F0040F460003649086040203549086052
:101E50004FF001003149C8600AE0294800780228A3
:101E600003D131482A49486002E030482849486097
:101E70002FA0FFF78DFE00203049C86008600220C7
:101E800048601D480068401E886200208863012069
:101E90004862886122481830006820F0FF0040F056
:101EA00040001F49183108604FF080501D490860FC
:101EB0004FF001002149C860FEF754FB2048064955
:101EC000C86210BD04E60F4055542E362E303178CE
:101ED000000000007C320000100500202C320000C1
:101EE00040000020500000204C0000203C0000205A
:101EF0004400002000350C0028000020380000209D
:101F000034000020540000205800002064310000FC
:101F10002C0000208C310000B43100000040034050
:101F200044E400E008E100E0DC310000043200009D
:101F3000202020202020202000000000005003400E
:101F40005432000010B5FFF789FE012005494862B0
:101F500005480068401C04490860012003490860E6
:101F600010BD00000020034060000020640000203D
:101F700008B51648006840F480201549C1F80401EE
:101F80001448006800904FF000001349086013499E
:101F900008601349C86008604FF0020048604FF0C5
:101FA0000000886288634FF00100486288610D4834
:101FB000006820F07F400B4908604FF400000A4998
:101FC00008604FF001000649C86008BD04E10F40F9
:101FD00000E00F4004E60F40600000206400002095
:101FE0000020034014E400E000E100E00120044987
:101FF0004862044800684FEA1010034908607047BF
:1020000000400340A890034000C0004000B50848CD
:102010000068401E0749886201204862FEF79CFA6A
:1020200040F6E4414843000B0349086000BD00004E
:1020300028000020005003403800002008B5274841
:10204000006840F001002649C1F804010846D0F8B4
:10205000080140F00100C1F8080122480068009022
:102060002048006800902048006B20F001001E49C5
:1020700008634FF02B0048624FF01A0088624FF05F
:102080007000C8621948006820F00F001749086006
:102090000846006808601448006B40F001001249CF
:1020A00008631348006840F00300114908601148B4
:1020B000006840F003000F4908600F48006820F0F6
:1020C000FF0000F111000C490860A1F10400006854
:1020D00020F00300A1F10401086008BD04E10F40F5
:1020E00000E00F4008E10F4000C00040C8CF0040B2
:1020F000204400401C4500402C45004098B900BFDA
:102100000F4AD26802F01002102AF9D000220D4BBB
:102110001A600B4A916000BF094AD26802F01002AF
:10212000102AF9D00AE000BF054AD26812F0020F67
:10213000FAD04022034B1A60014A916070470000B8
:1021400000800040004100400120FFF719FEFFF72A
:1021500049FAFFF721FA1148FFF77CF9FEF7E2F898
:10216000FFF726FAFEF72EFFFFF7ECF814E000BFAA
:102170000B4800680028FBD00A48006800F0040003
:1021800009490860FFF708FAFFF7DCF80220FEF7BC
:1021900073FF002002490860E9E70000AAB02800A8
:1021A00064000020FC4302401800002000000000F2
:1021B0000000005F00000007000700147F147F1478
:1021C000242A7F2A122313086462364955225000BC
:1021D00005030000001C2241000041221C001408DD
:1021E0003E081408083E080800503000000808089F
:1021F0000808006060000020100804023E514945B4
:102200003E00427F400042615149462141454B31E9
:102210001814127F1027454545393C4A4949300179
:10222000710905033649494936064949291E0036D0
:102230003600000056360000081422410014141421
:10224000141400412214080201510906324979414F
:102250003E7E1111117E7F494949363E414141225E
:102260007F4141221C7F494949417F090909013EBB
:102270004149497A7F0808087F00417F410020409A
:10228000413F017F081422417F404040407F020CC3
:10229000027F7F0408107F3E4141413E7F090909CA
:1022A000063E4151215E7F09192946464949493177
:1022B00001017F01013F4040403F1F2040201F3F60
:1022C0004038403F631408146307087008076151E1
:1022D000494543007F41410002040810200041416C
:1022E0007F0004020102044040404040000102041B
:1022F0000020545454787F4844443838444444209F
:10230000384444487F3854545418087E0901020C5C
:102310005252523E7F0804047800447D4000204021
:10232000443D007F1028440000417F40007C041899
:1023300004787C0804047838444444387C14141429
:1023400008081414187C7C080404084854545420C9
:10235000043F4440203C4040207C1C2040201C3C4A
:102360004030403C44281028440C5050503C4464B9
:10237000544C44000836410000007F000000413604
:10238000080010080810081F247C241F000000000B
:102390000000005F00000007000700147F147F1496
:1023A000242A7F2A122313086462364955225000DA
:1023B00005030000001C2241000041221C001408FB
:1023C0003E081408083E08080050300000080808BD
:1023D0000808006060000020100804023E514945D2
:1023E0003E00427F400042615149462141454B3108
:1023F0001814127F1027454545393C4A4949300198
:10240000710905033649494936064949291E0036EE
:10241000360000005636000008142241001414143F
:10242000141400412214080201510906324979416D
:102430003E7E1111117E7F494949363E414141227C
:102440007F4141221C7F494949417F090909013ED9
:102450004149497A7F0808087F00417F41002040B8
:10246000413F017F081422417F404040407F020CE1
:10247000027F7F0408107F3E4141413E7F090909E8
:10248000063E4151215E7F09192946464949493195
:1024900001017F01013F4040403F1F2040201F3F7E
:1024A0004038403F631408146307087008076151FF
:1024B000494543007F41410002040810200041418A
:1024C0007F00040201020440404040400001020439
:1024D0000020545454787F484444383844444420BD
:1024E000384444487F3854545418087E0901020C7B
:1024F0005252523E7F0804047800447D4000204040
:10250000443D007F1028440000417F40007C0418B7
:1025100004787C0804047838444444387C14141447
:1025200008081414187C7C080404084854545420E7
:10253000043F4440203C4040207C1C2040201C3C68
:102540004030403C44281028440C5050503C4464D7
:10255000544C44000836410000007F000000413622
:10256000080010080810081F247C241F424DC600D4
:1025700000000000000076000000280000001000AD
:1025800000000A00000001000400000000005000EC
:10259000000000000000000000000000000000003B
:1025A00000000000000000008000008000000080AB
:1025B000800080000000800080008080000080801B
:1025C0008000C0C0C0000000FF0000FF000000FF4E
:1025D000FF00FF000000FF00FF00FFFF0000FFFF03
:1025E000FF00000000000000000000000F0000F0ED
:1025F00000000000F000000F000000000F0FF0F0DE
:1026000000000000FFFFFFFF00000000FF0FF0FFD1
:10261000000000000FFFFFF00000000000FFFF00BF
:1026200000000000000FF0000000000000000000AB
:102630000000FF424DC600000000000000760000D0
:102640000028000000100000000A00000001000443
:10265000000000000050000000000000000000002A
:1026600000000000000000000000000000000080EA
:10267000000080000000808000800000008000805A
:10268000008080000080808000C0C0C0000000FF8B
:102690000000FF000000FFFF00FF000000FF00FF40
:1026A00000FFFF0000FFFFFF00000000000000002F
:1026B00000000F0F0000F0F0000000F0FFFF0F001F
:1026C0000000000F0000F000000000FFFFFFFF000F
:1026D000000000FF0FF0FF000000000FFFFFF00000
:1026E00000000000FFFF0000000000000FF00000ED
:1026F000000000000000000000FF424DC600000086
:10270000000000007600000028000000100000001B
:102710000A0000000100040000000000500000005A
:1027200000000000000000000000000000000000A9
:102730000000000000008000008000000080800099
:102740008000000080008000808000008080800089
:10275000C0C0C0000000FF0000FF000000FFFF003D
:10276000FF000000FF00FF00FFFF0000FFFFFF0071
:1027700000000000000000000000FF0000FF00005B
:10278000000FF00FF00FF0000000FFF00FFF00004F
:1027900000FFFFFFFFFFFF0000FFF00FF00FFF0043
:1027A00000FFFFFFFFFFFF00000FFFFFFFFFF00034
:1027B000000000FFFF00000000000000000000001B
:1027C000FF424DC600000000000000760000002817
:1027D000000000100000000A0000000100040000DA
:1027E0000000005000000000000000000000000099
:1027F0000000000000000000000000000080000059
:102800008000000080800080000000800080008048
:1028100080000080808000C0C0C0000000FF000079
:10282000FF000000FFFF00FF000000FF00FF00FFAF
:10283000FF0000FFFFFF0000000000000000000F8D
:10284000F0000000000FF0000FF00FF00FF000009C
:1028500000FFF00FFF000000FFFFFFFFFFFF000081
:10286000FFF00FF00FFF0000FFFFFFFFFFFF000072
:102870000FFFFFFFFFF000000000FFFF000000005F
:1028800000000000000000FF424DC60000000000F4
:1028900000007600000028000000100000000A0080
:1028A00000000100040000000000500000000000D3
:1028B0000000000000000000000000000000000018
:1028C0000000000080000080000000808000800088
:1028D0000000800080008080000080808000C0C0F8
:1028E000C0000000FF0000FF000000FFFF00FF002D
:1028F0000000FF00FF00FFFF0000FFFFFF000000DF
:1029000000000000000000000FF00FF0000000F0D9
:10291000F000000F0F0000FFFFFFFFFFFF0000FFB0
:10292000FFFFFFFFFF00000FF0FFFF0FF0000000B0
:10293000FFFFFFFF000000000F0000F0000000009C
:10294000F000000F00000000000000000000FF4247
:102950004DC60000000000000076000000280000C6
:1029600000100000000A0000000100040000000048
:102970000050000000000000000000000000000007
:102980000000000000000000000000800000800047
:1029900000008080008000000080008000808000B7
:1029A0000080808000C0C0C0000000FF0000FF0069
:1029B0000000FFFF00FF000000FF00FF00FFFF001E
:1029C00000FFFFFF000000000000000000000F00FB
:1029D000000000F0000000F000000F0000000FFFFA
:1029E000FFFFFFF00000FFFFFFFFFFFF0000FFF011
:1029F000FFFF0FFF0000F0FFFFFFFF0F0000F00FD1
:102A00000000F00F000000F000000F0000000000C8
:102A10000000000000FF424DD60000000000000052
:102A200076000000280000001200000008000000EE
:102A3000010004000000000060000000C40E00005F
:102A4000C40E0000000000000000000000000000B4
:102A500000008000008000000080800080000000F6
:102A6000800080008080000080808000C0C0C000A6
:102A70000000FF0000FF000000FFFF00FF0000005B
:102A8000FF00FF00FFFF0000FFFFFF0000AAAAAA4F
:102A9000AAAAAAAA0000000000AAAAAAAAAAAAAAE8
:102AA0000000000000AAAAAAAAAAAAAA0000000080
:102AB000000AAAAAAAAAAAA0000000000000000A10
:102AC000AAA00000000000000000000AAAA0000068
:102AD0000000000000000000AA000000000000004C
:102AE000000000000000000000000000FF424DB2A6
:102AF0000000000000000076000000280000001226
:102B00000000000500000001000400000000003C7F
:102B1000000000C40E0000C40E0000000000000011
:102B200000000000000000000080000080000000A5
:102B30008080008000000080008000808000008095
:102B4000808000C0C0C0000000FF0000FF00000047
:102B5000FFFF00FF000000FF00FF00FFFF0000FF7D
:102B6000FFFF00AAAA0000000000AAAA000000AA15
:102B7000AAA00000000AAAAA000000AAAAAAAAAA5B
:102B8000AAAAAAAA0000000AAAAAAAAAAAAAAAA04D
:102B900000000000AAAAAAAAAAAAAA00000000FF90
:102BA000424DB20000000000000076000000280046
:102BB00000001200000005000000010004000000F9
:102BC00000003C000000C40E0000C40E0000000025
:102BD00000000000000000000000000080000080F5
:102BE0000000008080008000000080008000808065
:102BF000000080808000C0C0C0000000FF0000FF17
:102C0000000000FFFF00FF000000FF00FF00FFFFCB
:102C10000000FFFFFF00AAAA0000000000AAAA000F
:102C20000000AAAAA00000000AAA0A0000000A0ADE
:102C3000AAAAAAAAA0AAAA0000000AAA0AA0A0AA50
:102C4000AAA0A00000000000A0A0000A0A0A00003C
:102C50000000FF424DB200000000000000760000BE
:102C60000028000000120000000500000001000420
:102C700000000000003C000000C40E0000C40E0074
:102C800000000000000000000000000000000080C4
:102C90000000800000008080008000000080008034
:102CA000008080000080808000C0C0C0000000FF65
:102CB0000000FF000000FFFF00FF000000FF00FF1A
:102CC00000FFFF0000FFFFFF000A0A0000000000F5
:102CD000A0AA000000AA0AA00000000AAA0A000098
:102CE000000A0A0AA0AAA0A0A0A000000000AA0A48
:102CF00000A0A0A000A00000000000A000000A00AA
:102D00000000000000FF424DB20000000000000083
:102D100076000000280000001200000005000000FE
:102D200001000400000000003C000000C40E000090
:102D3000C40E0000000000000000000000000000C1
:102D40000000800000800000008080008000000003
:102D5000800080008080000080808000C0C0C000B3
:102D60000000FF0000FF000000FFFF00FF00000068
:102D7000FF00FF00FFFF0000FFFFFF00000000005A
:102D80000000000000000000000000000000000043
:102D90000000000000000000000000000000000033
:102DA0000000000000000000000000000000000023
:102DB0000000000000000000FF424DD600000000AF
:102DC000000000760000002800000012000000084B
:102DD000000000010004000000000060000000008E
:102DE00000000000000000000000000000000000E3
:102DF0000000000000800000800000008080008053
:102E0000000000800080008080000080808000C082
:102E1000C0C0000000FF0000FF000000FFFF00FF37
:102E2000000000FF00FF00FFFF0000FFFFFF000A9F
:102E3000000900000090000000000000900090B029
:102E40000A000B00000000000B000B000000000057
:102E50000000000BA000E0000090909A000000002D
:102E600000A00000E000000000000000900000A0B2
:102E70000000AE000000000A0000E00A0A0000B0F6
:102E8000000000A0000900000090000A000000FF00
:102E9000424DD6000000000000007600000028002F
:102EA0000000120000000800000001000400000003
:102EB00000006000000000000000000000000000B2
:102EC0000000000000000000000000008000008002
:102ED0000000008080008000000080008000808072
:102EE000000080808000C0C0C0000000FF0000FF24
:102EF000000000FFFF00FF000000FF00FF00FFFFD9
:102F00000000FFFFFF000E0009000900B000A00054
:102F10000000000000900000000009000000000018
:102F200000000000000000000000A9000000009068
:102F300000000B0000000000000E000000A00000D8
:102F40000000000B00000000000000000000000076
:102F500000000000000090000000E0000A00900067
:102F6000B00009000000FF424DC600000000000054
:102F7000007600000028000000100000000A000099
:102F800000010004000000000050000000000000EC
:102F90000000000000000000000000000000000031
:102FA00000000080000080000000808000800000A1
:102FB00000800080008080000080808000C0C0C051
:102FC000000000FF0000FF000000FFFF00FF000006
:102FD00000FF00FF00FFFF0000FFFFFF00000000F8
:102FE000000000000000F00F000F00F000000F00D4
:102FF000F0F00F00000000F00000F000000FF00003
:10300000000000FF000000F00000F00000000F00D2
:1030100000000F000000F000F0F000F00000000FD2
:10302000000F0000000000000000000000FF424D03
:103030009A00000000000000760000002800000058
:10304000040000000900000001000400000000006E
:10305000240000000000000000000000000000004C
:103060000000000000000000000080000080000060
:1030700000808000800000008000800080800000D0
:1030800080808000C0C0C0000000FF0000FF000082
:1030900000FFFF00FF000000FF00FF00FFFF000037
:1030A000FFFFFF00000000000F000000F000000024
:1030B0000F00000000F000000F000000F000000012
:1030C0000F00000000000000FF424D9A00000000C9
:1030D0000000007600000028000000020000000947
:1030E00000000001000400000000002400000000B7
:1030F00000000000000000000000000000000000D0
:10310000000000000080000080000000808000803F
:10311000000000800080008080000080808000C06F
:10312000C0C0000000FF0000FF000000FFFF00FF24
:10313000000000FF00FF00FFFF0000FFFFFF000096
:1031400000000099000000BB000000AA000000FF82
:10315000000000FF000000FF000000FF0000000072
:10316000000000FF5468657265206973206E6F204F
:1031700067726164657220666F72204C61622031F3
:1031800035000000000000000000000053696D756C
:103190006C61746564204E6F6B696135313130202C
:1031A0006F6E205041312D30000000000000000003
:1031B000000000005265616C204E6F6B6961353113
:1031C0003130206F6E205041372D322B53636F709A
:1031D00065206F6E205041312D3000005265616CCA
:1031E000204E6F6B696135313130206F6E20504158
:1031F000372D320000000000000000000000000039
:10320000000000004E6F204E6F6B69613531313028
:103210002C206E6F2073636F70650000000000004B
:10322000000000000000000000000000200000007E
:10323000000000000000000000000000000000008E
:10324000000000000000000000000000000000007E
:1032500000000000544578615320697320696E694D
:103260007469616C697A656420666F72204C616272
:10327000203135000000000000000000477261644A
:10328000696E67206973206E6F7420696D706C655C
:103290006D656E74656420666F7220746869732052
:1032A0006C616200446F6E652067726164696E676D
:1032B000000000000000000000000000000000000E
:1032C000000000000000000000000000816367A40F
:1032D000D6811F69CC76375C8CE1983D549AB865ED
:1032E0004B81D1872F5E7DCFA6484F87C376447A26
:1032F000CD88406A8FAD69367AC8854A6AD7EC5B5B
:103300002B54A373225196D1B8C6BF715F0C004FE6
:10331000A76F78EEFFFF76000000000059ECFFFF7A
:10332000FFFFBE00000014AAA189FFFFFFB5250022
:10333000000F003CA7FFFFFFFFFF3C0000293C2CD3
:1033400080D3FFFFFF96330C00000A88C9D0ECFF42
:10335000FFD10000000F101F80FFFFFFFFFC900057
:1033600000004D444BABFFFFFFE98B350000096ABD
:103370004D7BD1FFFFFF92440700000088A69FDB32
:10338000FFFFFF52000000000051D6E1E5FFFFFF04
:10339000730000004B3F2F7ED1FFFFFFDE7736002A
:1033A0000000708567B9FFFFFFDE884A00000066F5
:1033B0006062B1FFFFFFFFBF770000002C7D747AD1
:1033C000DEFFFFFFEC62320000001181D0A4C2FFDB
:1033D000FFFFC61300000000289ACDBFD1FFFFFFFA
:1033E000934A14000000708C77B4FFFFFFECD37A8F
:1033F0000000002155517BCFFFFFFFFFFF8400003D
:10340000001D1F2173B8FFFFF8FFFFE2210000003D
:10341000372C3A80D7FFF3FFFFFFE2240000000CB7
:103420001F62AAE8E1E4FFFFFF8C27000000000D07
:1034300060C0C0AEF2FFFFFFCF32000000000046C8
:1034400095E8C0BFF8FFFFEC8C280000000018765C
:10345000D0A7A3E0FFFFFFD1893F0A000000587802
:103460007399B5FDFFFFE4EFDB570000000016364F
:1034700082CCC8B1EEFFFFE7D0894B000000005EB0
:103480006970B2E1CCD7FFFFFFC9702C0A000000C1
:103490005B6573A7D6F5E8D8FFFFE1963F170000FC
:1034A000002865718CC6D8C6DBFFFFE9B4895111CD
:1034B000000000404E6C9AC5F0D4CFE9FFFFD190D8
:1034C000472400000016676A88AAC8F8DDD4E9FF1F
:1034D000FFC37025060000001B7E808BADBEE0F3AD
:1034E000DDD6E9FFDD90360200000000439AB1A16D
:1034F000ADABD6FADDD3E1F3CC7A3009030000029C
:103500004B9AA7A0B1CADAC3C3DDF9EBBC8F69350A
:103510000000000F3F4F85A6CAD7AEA0BFF0E5CD93
:10352000C8CFCC6D14000000001359A4AEA3A8BBF3
:10353000D8B7ABCAD3F0D4AB9A71440000000010E6
:10354000367398C8D6B29DB0C9C0B1C3DAD0A888C6
:10355000573702000000374D6C98B4D3C6A6AABBFB
:10356000C3B5B9CDDAAE95845B3C0000000340588A
:103570006C9FC6C5B5A7B1C2AD9FB8BED6CAA0994B
:103580008C672200000306134773A6CCB8AAB7C500
:10359000A69098B4CCC2AEB4B99D84603C2400001F
:1035A00000184E697D9CB9CAB1A8A8B5AA8E9AB474
:1035B000C9B5A7A8ABAA80552C1E100003163A78EF
:1035C0008995ADB0C2B9A49C9CAA9288A1B9BFABA1
:1035D0009CA3A88E6C543C1100071D30375580AB5E
:1035E000B7ABB2BBB2A09398A0928595A8BCAA9A9B
:1035F0009F9F9C826D604417050D173247516A9258
:10360000A8BCBFADABA8AEA18B8B9390848E9FB0AE
:10361000AEA099969396806D5B352C220F182846A4
:1036200052607E95B4B8B2ADAEB1A6909095968931
:103630007E818F95999CA3A8958B888788766A5CF4
:103640004A2E1A1F2C373C4B5B77929CA6ADB7B71E
:10365000A8A19F9F9C8E8B8F8F8480828B90898F57
:1036600098A3A0938C858881747076705944322E0B
:1036700035353A4354696971889CAAABADB0B1A79E
:10368000A09999988C8B8E8C8C828481898580807E
:10369000878C8E8F9396928882817E80746F7178EA
:1036A00077572E0D000635608BA1C8FFFFAE523A4A
:1036B0003769DBD052474670EBCC4F464778EFCFA7
:1036C0004F444376F2CC4E414170F2CF4E403C6DB8
:1036D000F3D34D3A3967F5D8513C3A63E8E15235B6
:1036E0003A58DDEC62353A51CDFA76333748B7FFB8
:1036F0008B33393FA7FFA43736398FFFBF3A3537B1
:1037000073FFD64B333760E8F3602C364EC8FF8525
:103710002F393FA3FFB13537377AFFD7402F3362B8
:10372000EEF5622E3C4BBFFF962E35378EFFC93A21
:10373000303265F3F35B2C3346BEFF982E363A8168
:10374000FFD4442B325CDEFF742B363DA4FFBB3329
:103750002E3566F8F65E293641B0FFAE302E367152
:10376000FFEC51283648B1FFA82F303A6FFCF559CD
:103770002E3347B0FFB4322E3665EBFF6A29364050
:1037800098FFCF3F273358CAFF8C28303778FFF097
:1037900052283544A3FFBF332E325ED6FF8828352A
:1037A0003978FFF2582936469CFFCF3C2B3555BE61
:1037B000FFA62E2F3C65DEFF7D29303D7AFFF35FAB
:1037C00025334690FFDD4329364BA4FFC8372B3500
:1037D00054B8FFB1322E395FC9FF9C2F2F3C65D8FA
:1037E000FF8B2C323D70E0FF7E2C334171E5FF7A78
:1037F00027303F73ECFF782F304077E7FF762B328E
:103800004474E5FF802E2F4370DBFF872F353F6C1C
:10381000CDFF9A32303D62C0FFAA32323A5CADFF32
:10382000C339272E4D95FFD04122334E89FFE94FF2
:1038300029324878E8FF702B2F436AC9FFA02F2F49
:103840003C5CAAFFC83F2E37528EFFF25B30324BF2
:1038500076D4FF92302F3F65A7FFC9402F39548897
:10386000F3FD6A2C37476FBCFFB1372F375B92FCF3
:10387000F35C2F364D71BFFFA836303F5C90FAF3F2
:103880006033324A6AB8FFB93930365785E9FF7478
:1038900032334169A4FFD64330355476C8FFA03790
:1038A000333A5F8CF2FC6C303343659FFFD847326C
:1038B000325171B4FFBB392F35587ACDFF99323070
:1038C0003D6087E2FF7B3335416290F2F066303035
:1038D000486792FFE85432354A679CFFDE5433361E
:1038E0004F6A9FFFE04E35364B6A9AFFE2553336FA
:1038F0004B6998FFE45933364A6A93F5EE6A3232DF
:103900004A678BE7FA7E3535416581D0FF933635BE
:103910003D5B78BFFFB13D2F395773A4FFD34736C6
:10392000354E6D92F3F06C3737416980CAFF9C3A8F
:10393000333A6273ABFFD04A33354F708FE4FD806A
:10394000373340667AB5FFC3433039596F8FE9F991
:103950007B3A37446677B0FFC348333A547088D80F
:10396000FF9637333C5C739FFDE563363A48677BCF
:10397000B2FFC344353C517188CFFFA43D333A595F
:103980007790E1FF893A36405E779AEFF070363AE9
:103990004467779CF6E0602E304165769FF6E05EE6
:1039A0003237416A7A9FF8DD63333744697E9CF38E
:1039B000E46C373346657A9AE7F2803737416277AD
:1039C00090D7FF983C363F5B7788C2FFB540333FC6
:1039D000556D7EABFFDA5E393A476C7A99E1F58C2A
:1039E0003933435E7688BBFFC04A353A526D7E9AC2
:1039F000E5F6823939435F7684B7FFC54D363C4ED4
:103A00006A7D96D6FF993D363F58747EA6F2E270E5
:103A10003A3243607888B4FFCA4F363747667A8EA9
:103A2000C3FFB544353C4F6C7D90C6FFAB43323984
:103A3000556C7E90CAFFA841323A55708092C5FD00
:103A4000AD43323952697B8BBEFDB948323A4F6C77
:103A50007E89B1F9CF5C3A3C48637785A1E5EC8279
:103A60003A33435E717E93C6FCAE43323D54698067
:103A700088A4F3DB673A354360748292C6F9AA449E
:103A8000323D4F6F7E85A3E7E57D3A32405F70811E
:103A90008CB1F8CA5C3A364863768493BEF9BB4B66
:103AA0003539516A768590C8FFB043363C516D7BFD
:103AB000898FC5FCAD47353C516A76898FBEFABB0C
:103AC0004D363F4D66778590B1F0CA6336364A620F
:103AD000768489A4E0E8843C303F5E737E8C98C392
:103AE000F9B24837374E6D778790A8E1E4813F32CD
:103AF0003F5B70818B90BCEFC85C3C394765778534
:103B00008F95C5F9B4483539466571818890C5EE01
:103B1000A74432374D6676858C96C5F0AA46393C67
:103B2000516674848E8FBEF0BB57353948637684F6
:103B30008F8FADE5D4783C32445B737E888C9CC615
:103B4000EFA848373A4F6A78858B8FA8E0DA843C33
:103B500030435B707D858F92B0E8CC6C3733475E25
:103B6000717E8B9090B5E8C3673935475F70818C63
:103B70008C8FAEE2CC733933475E707D878F8FA414
:103B8000D1E09240333C4F6C7B858C8C96B8E5BB82
:103B9000593636486074818B898EA0C5E59C4433C4
:103BA000374E6A7682888C92A1CCDD9540333F4FA8
:103BB0006978818C8E8BA0CADD9C40353C4B667841
:103BC000828C90909ABCE0B2593736465F747D89FA
:103BD0008F8E8EA4CCD8903F333F54667682888CEB
:103BE0008F93ABD6C67A3C3041587076848B8B8BE2
:103BF0008FA8D1CA803C3241576978848B8B8F8FD4
:103C0000A0C6D49846363C4F6576828989898E92C3
:103C1000AED0C274393347596F7B80898C8F9392B1
:103C2000B1D3B86D3933465C6F7B8889898F8F93A8
:103C3000ABCAC6803D323F556C78848B8C8F8F8C9D
:103C400098B8D0A35936364A607080848C8B8F8E9A
:103C50008C9DB8CD9F543A35486274818B8F8E927B
:103C60008C8993B0C9B46F3933465C6F7D848C8E78
:103C7000908E8C8B9AB7CD9D543633465C6A7D8589
:103C8000888E8C89888790B4C8A36237324B59706C
:103C90007D858B8C8F8C8B89879DBCC3904B3737F0
:103CA00051637384898F8E8E8B8C888899B8C5995F
:103CB0005439374D627380898E8C908B88898B8EB6
:103CC000A1B9B98B4A36404F6674818B8B8C908B2F
:103CD0008C88878896B0C0A1603A354D60737B842C
:103CE0008E8B8B8E8E8789878296B1BCA0653A3683
:103CF000485B6F7A87898F8E8E8B888987828599BA
:103D0000B0B995573D374D5E7081878B8B8E8C8B0C
:103D1000888987848089A1B2B7844B353C51657608
:103D200082888C8B8F8C878889828184808CA7B5D0
:103D3000A773463643556C7788888E8E8B8E8C841D
:103D4000878482827E8093A8B79C6A4439415C6AEA
:103D50007B84888E8C8C898B858185827D82827E16
:103D600092A7B0A071473741576977858B8C8C89B2
:103D70008C8B828582818484807E828B9AA7AE8E92
:103D80005F4339485F6F7E848C8E8C8C8B888982F0
:103D900087848080807E827E8496A3ADA1764F3C0E
:103DA0004354667881878C8C8E8E8C848782828542
:103DB00081807E82827E7D82899CA3AA92664A3A15
:103DC00048586D7A828B8C8C8B8988898287848015
:103DD000818084807E807D82828087969FA3A37D60
:103DE0005B413F4B5F737B848C8E8F8C8B82848195
:103DF00080807B81817D7B7E7E7E7D817D7D7D7EE1
:103E0000878F9A9F9D87664E3D47596A7881898B37
:103E10008F8E8E8B8B88848085808084807E847E4C
:103E20007E82807E7E7E8080807D81828B98989C41
:103E3000967E63524146596A78858B8C8F8C8B892C
:103E40008B848885818085818084807E7D8280844A
:103E5000807E827E7E7E7D7D7D7E80808080808172
:103E60008E90969390856C5B4F464D606A7B858BF8
:103E7000908C8C8B898B8499B0776671717482A6D3
:103E80007A63827184A67667826F88A67369816F70
:103E900084A07866807382A07865816D82A377693B
:103EA000806D82A47465816F82A4746C816F809F21
:103EB0007770816F7D9D7874806A7E96827B786F43
:103EC000788B927E71747785997E6A787184A07AF6
:103ED00066806D7EA3736F816D7E9A7D777B6F7830
:103EE0008B927E6D787485A47666806D7EA3776CE8
:103EF000816F7D95827B76737A849F806C7D6F84E1
:103F0000A4766D816F7D968480777077849F7B6ABD
:103F1000806F809F78767D707A8B967E6F7D7381BF
:103F2000A47470806F7D908E8071767482A4786A9C
:103F30007E737E928B7B717A7482A6766A81707DA5
:103F4000908F8174777682A074747D747E859A8058
:103F50006D7E7480997E7878767884A67A6D7E708E
:103F600078888B7D6D73767B9A7A7478707A81A36A
:103F7000776C7B717D88987E707A767A96847D776F
:103F80007474829D77767B767A849F786D7D737D5D
:103F9000899C7B6F7B767E8B8E8074777680938412
:103FA0007A73767B809880787D7474849978787B36
:103FB000767A809D7A777D777B819F74747E777B1C
:103FC000819F74747E7778849F74767D7778849AE5
:103FD00076767B7A7B819978787B767A8098787D03
:103FE0007D747B7E90827878717A7E90897A7676FD
:103FF0007B7887937D77777A78849A7A737B7677E4
:10400000849A77717B737E84927A7D7A737A7D89C4
:104010008F7E77777D78849A7A737E7B7A81997A9E
:10402000777D777B7E8B8E7B77777D76849A7676AD
:104030007D747E7E8C847D7B747B78849A7A717AA1
:10404000767A80927E7B7A737E78849974747B769C
:104050007A808E817B7D747B788499747480747E81
:104060007E8B897A78777A788495787D7D74817A69
:1040700081997A777D77807B88908078767B7B8149
:104080008E7E7A7D7781768495777B7D77817A8144
:104090009978787D77818081967A7A7D78817D8420
:1040A0008B7A78777D7D818C898078787E7E7E8919
:1040B000897B7A7D7D7E8187898078787B80808806
:1040C000897E787D7D7D7D888C80787D7D7D7D84F9
:1040D00090807377747A7B819076737D767E788218
:1040E00090767A8074807A818C787D7D77807B81F0
:1040F00088847D7D7A7B8080818F7B7A7D7B807DCB
:104100007D8E787D7D7B80808084887E7A7D7B80BB
:104110007D818F767D7D7B80808084887E7A7D7BAB
:104120008080818E777D7D7B80808081897E7A7D95
:104130007D7D7E818E7A7E7D7B807D80818E777B8A
:104140007D7B7B808081897D7D7D7B80808084827A
:104150007B7D7D7D7E7E7E887E7D7D7B7B8080807D
:1041600089787B7B7B7D81808089787D7D7D7B806C
:104170008080887B7B80777E808080887B7B807B53
:104180007B7B7B81887B7D7D7780807B8287818242
:10419000787D7D7D7D7D81877D7D7D7D7B8080803F
:1041A00089787B807D80807D7D847D7D7D7D7E7E28
:1041B0007E7E7E887E787E7D7B808080887B7D7D14
:1041C0007B807B808080857E7D7D7D7B807B808504
:1041D0007B7D7D7B8080808080877B7D7D7D7D7EFB
:1041E0007E7E82877D7D7D7D7D7E7E7E82827D7DE1
:1041F0007D7D7E7E7E7E82817D7D7D7D7E7E7E7EDE
:10420000847D7D7D7D7E7E7E7E82827B817D7D81C3
:104210007D7D7D7D81817D7D7D7D7E7E7E828182B5
:104220007E7D7D7D7D7E817D81877D7D817D7D7DA6
:10423000817D81827B7D817D817D7D7D8181827B90
:104240007D7D7D7E7E7E7A81807B7B7B7A7E7A7EA1
:10425000807B8080807B807B808080808081817D6E
:10426000817D7D7D7D7E7E7E827D7D7D7E7E7E7E6E
:10427000808080817D7D7D7D7E7E7E7E7E82817D53
:104280007D7D7D827D7D817D81817D7D7D7D7E7E4B
:104290007E827D7D817D7D7D7D827D7D7D7D827D3A
:1042A000817D81817D7D817D817D81817D7D7D7D22
:1042B000817D7D7D7E8080817D817D7D808080800F
:1042C00080808080808080808080808080808080EE
:1042D00080808080808080808080808080808080DE
:1042E00080808080808080808080808080808080CE
:1042F00080808080808080808080808080808080BE
:1043000080808080808080808080808080808080AD
:1043100080808080808080808080808090A4916F69
:104320005F5B646A7E866C6D7BA09E766590BD6ED9
:104330004F9ACA751060D0BB4164C0AF5D006AFD82
:1043400089118CF2670186FF86046EE6760195FF7F
:104350005906A0FF6E003CB1FF511BCFAA2B3DC8F0
:10436000B31768F5700B66D2D92749ED721D39ADC8
:10437000FF5B0091FF8A0A3EABFC5400ACF42E2F89
:10438000CFBE4A008DFF931041BFD71E54E0A34E0D
:104390000080FF7C0095FF66008AF9A93F00A6FF18
:1043A0003E18C3E5214EE0A3460091FF6400A1FF43
:1043B0005C00A3FF5F0086F6BF4D007DFF820058C2
:1043C000C6E25F007AFF9E2B35D5B21563D6C831A1
:1043D00027C6D64B0083FF860668DBB31269FB68ED
:1043E000046AE4CC2D33B9F74C00B2F42734C7DCAF
:1043F000550069FFB62363FE600076CFF354008951
:10440000FF7C008CFD792B13A2FF930F3CB4FF3E81
:104410001AC4DE5B0087FF6000B2FF4C06B3FF509A
:1044200000A6FF6C006EFF5C007AE4D73918B5FC7B
:104430004B0076FF860185D6BC4100A3FF5F008F4D
:10444000FF7E2230C1FF4116D0C9321FD1C72A4694
:10445000BEFB390BBEDD57008CFF811B58D1CA361D
:104460001CBAFB5E0090FF5204BEFF3C13CADC2A5C
:1044700037D4BA234EDDA91B5FD5BD4B0092FF7127
:1044800000A9FF530076F1A4196BCAD44F0085FF31
:10449000992A3ED8A40794E59A3600B9FF4109C588
:1044A000E83622BDF4500071EED2285AD69F33026E
:1044B000C5DA3B1FC0FF4608A8FF7A0075EB5C0712
:1044C00082EABC107CE5792E0FB2FF68008EFF57A0
:1044D000009CFE831964D4B74006A4FF6B0861B347
:1044E000FF630079E59B2C57D6B53C23AFFF770FD0
:1044F00032A7FF6200ABF1710E61EE7F139FFC5B90
:1045000000A2FB7E1566D4AC3E0FAEFF5A00A3E5B9
:10451000A9310EBDE74E0093FF7F1F78DD9424562E
:10452000E37F1483D7C32646CDB24200A7FF6705B9
:104530008BD7AF4900B0FF7A0F68D5A44400B3FF12
:104540004916C5F54100AFFF5800A7F2742729C6E8
:10455000F2430CABFF690095E08E1D58C3C63F00C7
:10456000C0F1420AB4FF5A00B1FA3F18BFEC55003F
:1045700087F7621D86DEC53234C8D13A13C4E63BE4
:1045800014AFFF67009EEF500094D1CE4700C0EA01
:10459000381CBDFF550095ED873326AEFF5C0091BA
:1045A000D3963F07BDFF3D11B8FF771534B6F03FF6
:1045B00000BEF556047EE5A93E37C3F6370DC0F3BD
:1045C0004100B5FB762A26BBFF4400BAFF832D1DB0
:1045D000B6FF530094D3BB5100B5FF54099EF05B66
:1045E0000BB5F9631375E56B2179D7CE2657D599AD
:1045F0002F2FD3B12077E1801891EC5B1F79D0D7B2
:104600003D00B5FF5502A5E4631C5CD5C2276CD301
:10461000A44200BDFF6D2A35CAE33E14B3FF631404
:1046200061C0DB3B01BEFF541753BAFF3E00BFEC35
:104630004200C1F23B1CD0D4381EB5FF4108C6DD94
:104640002E1FCCCB2A3FD5B03531C2FB3C06A7F696
:104650005C1385C7D33C00AAFC7E2068D195295104
:10466000CCC02A4ADA9F3149C1FA4E00AAEB430F67
:10467000B1FC571F7EC3F34400B4E640089EF282AB
:10468000286DBFDF4000AAE4972F26C8D53F0098C9
:10469000F3A7277CDE69362BBEFF390EAFEB8E1CED
:1046A0005BC2AB2E17C9F045078FEF91229DEE4FED
:1046B0002956BEFF3B00BFEA70282BC5F83903C25C
:1046C000FF4611BFE8530D6BD1BE3629D1D934193D
:1046D000CDEF3614C0FB711D2BBEFD340091EBA550
:1046E0002285E074215ED4A52163E66D17B6E96EDC
:1046F000206ADA941E80E8560FBFF0602A49C9FC90
:104700002D06D0EE35009DF7822968BEF32A00B051
:10471000DE8C2C06C9FF3900A9D8AF3110D9CB20C7
:1047200048D5B92D33E2B02459C9FA4500B1E33573
:104730001598F595275EC8FA3B0086D8921B90E045
:10474000792D2ED6F01F40E19D285BCDCE2B10D4C5
:10475000FE4B00A0EC4E2576D7D72344D1C42E02C1
:10476000D1F13C01AEF950268BD5DD2B00B6F28697
:104770001464CDA13105D1FF2C22DFDB2C15BBFF4A
:10478000401988E1A80F86CC8B2224D2DB3206D8D0
:10479000ED223AD1DE3500BCE68C2441E38E295669
:1047A000DAD31D52DAA52533CEEF2203DCD6292138
:1047B000CBFF3604ACE8621991D4891C5DD1AD2AD7
:1047C00017E0CF1B5EDBB33206C6FF611A95DE5CD5
:1047D0002267D4D4271BD3FC4500A0E1591E84DBFB
:1047E000A3254BDAC32724E4C42054E2981982D1CC
:1047F000972730E4A72845D1FB2616D6E02302AA46
:10480000F1681AA1CCB22900CFFA5A1776E07021CC
:1048100090DE893335CEFE3704B7D6842E05D5FF1A
:104820002A1EACE7A7202DD5CA1156E3713155D504
:10483000FC1D20E5BD2820BFFE530DA5DC49236CDF
:10484000DED0223FDBD5230EC3EB892B00C9FF2D21
:10485000229FE5A11E53DCA22936CDF82613B1E034
:10486000AA1F19E2C61F47D7EC2600CEED341FD889
:10487000D92216DAF94A109CDE3E1CD8F144118E7A
:10488000DC5913BFE3512A54CFFF2300B4CF9D213D
:1048900033DFB4262AE2E6173FDEBC2809CDFF420B
:1048A0002D6BD1FC1A00D5E354128CD5843318D06B
:1048B000FF4127D5DE281A73D7F21B15E0E1300B34
:1048C0009BE57B2F77DCA81779D4812E19CCFF4D7F
:1048D0001DAACE7C2E18CAFF3F25D0DB2E11A6DFE5
:1048E0005B23B3E4462987D7D61614E6C01C53D6FB
:1048F000BF1E20E3CF1E47E5A9283DC7F846139900
:10490000CD7B2A4EDDC11668D1A92A06D7F63A29F1
:10491000CBDA2E11C0DD492987E39A2D4BCAF23B31
:104920000CADC92D2C95E8AB2848D0E61B0AD7CB97
:10493000262DD9E21E1FD9D2241ACADF862D22E3E2
:10494000D52041DDC2242FC6E773185DC5AA2036E5
:10495000E4B32C38C6EE802C27D5E3172CDAD42EFE
:1049600014A3DC683D65D4F52B1A6AC9EC1E0FD57B
:10497000DA372E7AD6CB1849D7A32542E0AE2A459E
:10498000C6EB5C2A54C8E21B17D4D1412697D962E2
:104990002DBCD25E3D46D2F2412F49CBF71B26916A
:1049A000CEDB1E109BE0982C74CBB1251CC6E352C5
:1049B0002F99C77B2C67DB822AA9C5783429BCEFE5
:1049C0005031B5CE442DA3C4A62325E3B4295CDD24
:1049D000AA2965D3AC2E28C7DF353C8ADAB61B6A14
:1049E000C9823131BCEA732E89CB5831AEC47735D8
:1049F00041D2D21F20C2D64833C6C7322BA7D04FD0
:104A000032BCCD553188C1A02B21D9DC4F3767CEC0
:104A1000C72431DBBD294CD5C62426B7D8633E59FF
:104A2000CAEA2F28A7C65E2DB6C25A3C45D6DA2C54
:104A30004DD2BC212D8BD5CD2432D9BF2A2BB9D74D
:104A40005A4564CCDC223DD0BA2925A8CE803971E4
:104A5000CDAC2944DCA33253CED73029A2C27C3E50
:104A600046BEE0413BCDB82934D0C73D3191CA7034
:104A70003D93CA8E2F69CC932D64CF9C2F59CEB015
:104A8000216ACD744055C5DA3E3B7CC8B3215CCF6A
:104A900089316EC2AA283BDBA82F5DCEBA27349598
:104AA000D5B82542D1BF2D2ACAB8324985E0BA23EC
:104AB00070BF962D2AC9CE463EA0C2763C69CFACC7
:104AC0002E43CDC32C48CEB52C31B5C86B4274C62D
:104AD000AE2B33A4D87933AFB3593D5FD29E356442
:104AE000CDBA2733A9CE774158B7D33B3CC8B03BAA
:104AF0003D74CBBE294BD4B12E3BC5C44144A4C3A5
:104B00006939A8B557426DC9BF2833C0C278405033
:104B1000CDCB3236C3B64F4963D2BE3253CBC02D54
:104B200038AEBC5641C4B02E4FD0A93144C1C66482
:104B30004654CAC72C417DCFB53351C8BE2F3CACBB
:104B4000B85443BCB9544190C36B496FC2CE3C3D8D
:104B500095B86F3CA7B1684550CEC03A4FC7AD3746
:104B6000538CCDAF1D2FB5B84E5366C3CC36496BB1
:104B7000C6BB2F4E90CD823C5EBDC1424172C498EF
:104B80003487B6893A44CFC44E459AB65D499DBB39
:104B9000684D67B6CF4548C0AA403FA6B15A55698F
:104BA000BCCC434BC6AB404C68C6CB414979BEB187
:104BB0002B489DC5A73241CAA4425891D28A3F5F73
:104BC000B8BE4A446FBFB82A47C9AC395295C6AE81
:104BD0002F40BBB44757C19F3852C3AD3E52B8B304
:104BE0004B4B9CB8684594B5694A74C0B23248A82A
:104BF000B7614C8BB296335CC4993750C3B74157F9
:104C0000C3934259A7BF684C6CBFA23552BDB24393
:104C10004F75C2BD304696B97445A1A66B4E59C4B6
:104C2000B93956C0A43E52A9B6604C9DAA794172CA
:104C3000BD754E6CABC5743C73B47D4761BDB53C6E
:104C400059C3A23F4C95B87846A2A850549BB86966
:104C5000506EAFB8445396B1983147BBAF604F61C7
:104C6000B8B54754AAAB565483C0A7344DA7B26F0A
:104C70004B5BB3B957518DB372536DADBC55527088
:104C8000BAAA375BC0A33C4E9DB56D548AB9953D19
:104C900053ABB6754A58C1AE435678BFB43455A825
:104CA000AE5A52B49C55556FC1A44163ADB06B4729
:104CB00060BBA24162B8A3485AB9A548539CAF7BD8
:104CC0004974BD855073BC9F3B5685C59D3F6DB6ED
:104CD0009D3A529DB2794B5C95C28344579FB66A08
:104CE0004D79B3874A6BB4A0415BA9A9684E63B301
:104CF000AD495FB9A04A5980B6A3395DBE9F4656FB
:104D0000AF9F526292BA993F53B4A6565890AB796E
:104D1000526AB8A44A5D9DAB685481B594405C8AE0
:104D2000C0A63757B898465D9FB069589BA072508F
:104D30007CB57A527FB3964258ADAB575E97AB8540
:104D4000456AB9834D678DC589497FA7844656A3B7
:104D5000B1695986AB854A6ABA8F4D69ACA64F587E
:104D60008EAA7A506992BE87475FAE9C49627EBA2E
:104D70009F415A8DB28B4B65AD9C4A629CA87B4B80
:104D800073B08F4565B9914B6AB7954B61A0A4602C
:104D900060A79A65528CA66464779FB35C5E82B00C
:104DA0009B3F569DA4685C85AF8F4866AA96556365
:104DB000A3A5645B7095B9755081A26F578CA46FE1
:104DC0005C8EA3804E71B08D4C62ADA26A5B72B3F3
:104DD000944A69A3A364599199636488B17F567218
:104DE0008AB889455EA3A05D637AB19C485E96A4AB
:104DF0006D6088AB83526993AF695B979668606B0F
:104E000092B8765890986C5F77B19548667CB0A55B
:104E1000546088A582506CAB9752688DAA85536701
:104E200096AC825164A99D626371A99F556B96A24D
:104E3000785770AB974D67A9905D668BB27C5E73B7
:104E400085B5864D66A2995D5F72A696506991A35D
:104E5000725A9293646583AB8A4F6B80B2984E5FAF
:104E600087A3825673A78F586C9A9E75596CAA991E
:104E700059669894706371AD925A6D8FAA79596C86
:104E80008FAB82526CAA8B506B82AD9E556A7FA904
:104E9000995065949A6D6488A0795E75A3935D6955
:104EA00091A06E6477A09D606775A89351698BA5EA
:104EB0008856679E9A6569939C7362749C995B6B34
:104EC000A1915D6D7493AE6A6A768AA86B5F8995CD
:104ED000746072A3945D6B85A38B5369A093606E1D
:104EE00099926969758DAD855471A384566D7EA5BF
:104EF00095616C7FA692516C928A676B9990686DF0
:104F000084A48261749895666A81A48953698DA08E
:104F10007D606E8CA77965749B915E6C879F8458C9
:104F20006C8AA5825E76A0895B6C8A9C826172A085
:104F30008F5B70968D666D9691686C968E6D6C7FAA
:104F4000A3885B6E86A184607094956F6582997D5D
:104F5000637189A8885A6C8F98736A7D998A5D7A83
:104F60009A7F637D9E7767748AA77A61739591694A
:104F70006C8892716D7685AC855D6D8B96716C8653
:104F800093806170979369737E8E996B6B7A94931B
:104F9000656C82997F6578948B6A717FA08B616D57
:104FA00088987B697E9A8A5E6F8B957B6977988FEC
:104FB0006A6E87927A6976998F6C71749191696F34
:104FC0007C99875D72968666757C94966D707B97EA
:104FD0008A60707C988E69707D9A8566747E9A91DD
:104FE0006C6F738D966E747A859E736F8078777709
:104FF000777878818285817D7777777D80878985CD
:105000007B6D635B5C6574878C8F827B6960595CA8
:10501000697374787782858B95A3ABAEADA18F85CC
:1050200073634F484B4F5257677D8F8B898995A388
:10503000ADA899856F696A6D7789958C85858F9AFA
:10504000A8B7BBBCB8ADA38F714B270500000309FF
:10505000132E526978878B90ADC3D0D3CABFB5B534
:10506000CAECFFFFFFFFFFF0D4C0AB82552F24290D
:1050700025212B393321030000000005091843784E
:105080009DB1C9DEEFFAF6ECD8C09F65290000009B
:105090000000003A6781A1C0DAEFF2DDB8A39D9D60
:1050A0009FA3A1815125110713293D598BB2C3CD6F
:1050B000CAB8A1999DA1B5BBB1A495A1C5F6FFFF42
:1050C000FFFFFFFCE2AD692700000013476585A8DC
:1050D000B7AEA38B71634D2F1F2429272B4D7D9ACB
:1050E00095805F41394F6382A1ADC0DDF6FFEBB51E
:1050F0007330000000133A73ABD8D8B177432B2735
:105100001F18110C0F1B4F95E2FFFFFFFFFFFFFF62
:10511000F0CF9D4D0300000000000029484F43439D
:105120005F737D80787D93BCDEFFFFFFFFFFFFF99B
:10513000FFFFFFFFFFCA8C551D00000000002E710D
:1051400081714F29111B3D4F5C67676A737D9AD44B
:10515000FFFFFFFFFFFFDEA373556080A3C0CFC337
:105160008F4800000000000000003587C9FFFFFFE6
:10517000FFFFDEB7906A3F000000000000001D85C1
:10518000C0D4CFD8F5FFFFFFF9D3CDDDFAFFFFFF85
:10519000FFD48C6A6987A7C3DAD8C0A48773696013
:1051A0005C5F676D7773552F0F0F2F577387959F30
:1051B000BCE8FFFFFFFFFFFFFFFFFFB76A37111BD0
:1051C0003A5781AEDAEFD7A15F1F00000002112726
:1051D0005781939DA8B7BCA873411F1D211D24357D
:1051E0003D4146555C52524B3A29303A486795C08A
:1051F000E5EFE2C9A4908F93897767575573A1DDD6
:10520000FFFFF6ECDAD0B796806F655C6374879029
:10521000959DA3A4A4A79F9A9AA3ADB7BBBBBFBB00
:10522000B1A7A19689776A656363606769635C4F1C
:105230004646474B4D4D52657B89909AA3AEB1AD22
:10524000ADA199896F52351D161D253A576A77858C
:1052500095A3ADAEA493898785878B87785F4841F6
:105260003A414B556377828C938F878999A8A8AB75
:10527000A18B7B6A7187ABCFEBFFFFFFFFFFDD9A4E
:105280004D1100032E4F5B67788077715C46331FAA
:1052900011070C1B305182BBD4CAAB8B716A747777
:1052A000818C8C99ABBFC3AD825C39170D16243A43
:1052B000638FB1B79D7755474D595B4F47474F7740
:1052C000ABD8FFFFF9ECE1D3CABFAD8F521300009A
:1052D000000000002E484F43465F717B7B787B9037
:1052E000B2CDF0FFFFFFFFF6ECF6FFFFFFFCCD961F
:1052F000652B0000000000306D7B6947240F183AD1
:105300004D5F67656A71809AD4FFFFFFFFFFFFDE84
:10531000A373556080A3C0CFC38F48000000000076
:105320000000003587C9FFFFFFFFFFDEB7906A3F2F
:10533000000000000000001D85C0D4CFD8F5FFFF9D
:10534000FFF9D3CDDDFAFFFFFFFFD48C6A6987A791
:10535000C3DAD8C0A4877369605C5F676D777355E3
:105360002B0D0C2E55738595A1BCECFFFFFFFFFFA5
:10537000FFFFFFFFBF6A330D1633527DB1E2FAE142
:10538000A460160000000000184D7D909DA7B7C0D6
:10539000A8713513111813182F3939394851484657
:1053A0003A210C132539639FD8FFFFF9D8AB9593A9
:1053B0009385674D37355C9DF0FFFFFFFFFFFFFAD8
:1053C000D0AD957B65657387939699959390958CF1
:1053D0008F8F908C8C908C8F8F8F8F8B8C8C8C8CF4
:1053E000898789898985828182818180807D7D7D8F
:1053F0008080807878777B77747874777777737725
:10540000747173737373716D6A6D716D6D6D6D6DA4
:105410006D6D6D6D6D71716F737474737371604DBB
:105420004B4B43476999B7B59A78573D302E303F7B
:10543000578FD4FFFFFFFFFFEB8F4D3A435C5C4B70
:10544000392518110F0900000000000003479FFADA
:10545000FFFFFFFFF0E8E5D3AB805F46372E2B213F
:1054600003002151716F604D3D3535394B607895A2
:10547000B1D4FFFFFFFFFFFFFFFFB76A2B00000063
:1054800000000005436369676059524D4F4D4F520C
:10549000595C63676D6F737374653718070718304D
:1054A0004B7193ABCADAECF2FFFFFFFFFFFFFFFF88
:1054B000FA6D090000000000176082785935130367
:1054C00000000000030F18180000093D6D7D786989
:1054D0006582B2E2F5E5C6A48B7467635C5F6360C6
:1054E000593D24161F579FCFD7CAAEA8B1AB9A8596
:1054F00081969A9A9DB7DAE5E1DDE1D7B28559390F
:105500001D0F090C11181F292B1D25333F5C859A8F
:105510009593877D7B73716F6D696A69595773893C
:105520009595908F898581807D7D7B807D80808031
:10553000808280807D7D818182858180807D7D717A
:10554000716D73858F9590898781787B716A71778A
:10555000777B78787773777471674B3A487195A445
:10556000B7BCB5A38F80746F676767636769696A43
:105570006A6D6D716F7374747477747877777777F9
:1055800077777155371D2146677D878C8987878C92
:10559000ABD0ECFFFFFFFFF2CAAB8157474337297F
:1055A000304D71787D8B908767472B180F05000071
:1055B000000013254371AEE2F5E5D3B195816F6A22
:1055C0005F6063676D73777863474D595F6569897D
:1055D000BBF0FFF5D3B8B2AEA399A3C5DAD8D8E132
:1055E000E1CA9F785F3F302B272B30353D43474F33
:1055F00055595B5C573D24130C13214781A8C0C645
:10560000CDE8FFFFFFFFFFFFDEC0AB8C5C2F11007A
:105610000000000000173F636F6D5C4B4B679AC042
:10562000CABCB2AB9AA3B2C6D3B88B511B0F0C1332
:1056300035608F9F9A85735C43332E21170C0D17AD
:10564000275BA3E2FFFFFFFFFFFFF2CD9A7D675FBD
:10565000607B96A1937D6D5B554F4F4F55555B60B9
:1056600065696D71737B787B808277603A2413174C
:10567000273F597796AEC6DEFFFFFFFFFFFFFFF91A
:10568000A8806F5F657B96A89A805F30020000005B
:1056900000000D395C829695898287785C483529AF
:1056A0002124211611305B8190909593938F8C8CDF
:1056B0008B8C8F959596999A9D9D9FA1A1A1A1A153
:1056C000A19DA19D999996959390938C87734F3541
:1056D0001F1B25374D6985B1E8FFFFFFFFFFFFFF67
:1056E000D49A6541395180AED7EBE7C5813A0D00B8
:1056F000000000000000003387C6F9FCE5CDBCA324
:10570000806046352E2B2E353D39333935333539CA
:105710004F7DB5DDE5E1D3D3E2FFFFFFFFF6D0A477
:1057200082747D85858996A8A8998773695C575985
:10573000595F65676D717473747D85858073676F5C
:10574000808B95969690908B8F99A3AEB8C9CAC35B
:10575000B2A3968B7874716D656771818585898B2D
:1057600082776A5C524129272B39464141526F8C1E
:10577000A8ADA3A19FB5BCBCBFC0BBA4896A5B5741
:10578000575152676F65605F677B8B8C8273656A68
:1057900074809AC3F0FFFFF9F2EBD3A4775C412B3E
:1057A0001109050909162946607473695F51474755
:1057B000413F48556990A4BBC6D0E7FCFC7A6958C4
:1057C0003C2B140F09141F30415E698090A7B8C3A9
:1057D000DAE0EBF0F6FCFFFCFCFCF6F6F0EBE0DACE
:1057E000CFC9C3B8B2A7A1908B857A7469635852A8
:1057F0004741363C41414D525E5E585E52473C3017
:10580000251A030000000000000000000000000056
:105810000000000000000000030F1A1F303C474D3D
:105820005E6F7A808B96A7B2BEC9CFDAE0EBF0FF4D
:10583000FFFFFFFFFFFFFFFFFFFFFFFFFFFFFFFF78
:10584000FFFFFFFFFFFFFFFFFFFFFFFFFFFFFFFF68
:10585000FFFFFFF6EBEBE5E0D4D4C9C3C3B8B2A7B2
:10586000A19C96968B85807A746F69635E5E5252B6
:105870004D4D41413C2B1400000000000000000091
:105880000000000F1A2B3C4D5263697474808080B5
:105890008080807A746F6963695E58524D413C30F4
:1058A0002B251F1A140F09030300000003091A25F2
:1058B000303030302B251A0F0900000000000000A6
:1058C000000000000000000000000000030F1A2587
:1058D000303C47586974808B96A7B2C3CFDAEBF699
:1058E000FFFFFFFFFFFFFFFFFFFFFFFFFFFFFFFFC8
:1058F000FFFFFFFFFFFFFFFFFFFFFFFFFFFFFFFFB8
:10590000FFFFFFFFFFFFFFFFFFFFFFFFFFFFFFFFA7
:10591000FFFFFFFCF0F0EBE0D4CFC3C3B8ADA7A10D
:105920009C968B85858080746F69695E58472B0FC4
:1059300000000000000000000000091A2536475250
:105940005E696F74747A7A7A807A7A74746F6F632E
:1059500058524D4741362B2B1F140F0300000000F7
:1059600000000000000003090F140F1409000000DC
:105970000000000000000000000000000000000027
:105980000000000000000000030F1A2B3647586388
:105990006F7A8596A1ADBEC9D4E0EBF6FFFFFFFF9D
:1059A000FFFFFFFFFFFFFFFFFFFFFFFFFFFFFFFF07
:1059B000FFFFFFFFFFFFFFFFFFFFFFFFFFFFFFFFF7
:1059C000FFFFFFFFFFFFFFFFFFF6F0EBE0DAD4CFB2
:1059D000C9BEB8B2ADA79C9C968B8080807A746F4C
:1059E00069635E5E58412B0F00000000000000005C
:1059F000030F1F3041525E697480858B909696909C
:105A000096908B8B8580746F635E52524D3C36301E
:105A10002B251A0F0F09030000000000030F1A1FA7
:105A20002B2B25251F140F03000000000000000091
:105A300000000000000000000000000000030F1F35
:105A40002B30414D5E697A80909CA7B8C3CFDAE5D0
:105A5000F0FCFFFFFFFFFFFFFFFFFFFFFFFFFFFF68
:105A6000FFFFFFFFFFFFFFFFFFFFFFFFFFFFFFFF46
:105A7000FFFFFFFFFFFFFFFFFFFFFFFFFFFFFCF642
:105A8000EBE5E0DAD4CFC9C3B8B2B2AD9C96968B41
:105A90008080807A746F635E5858524D4747413C0E
:105AA00036302B302B251F1A1F1A1A1A1A14140FEE
:105AB0000F090F090F090F090F0F0F090F0F0F140F
:105AC0001A141A141A1F1A1F1F1F1F25252B2B2BE0
:105AD000303630363C363C3C414741474D474D52CD
